S00C0000554152542E73726563DC
S11300000C942A000C9434000C9434000C943400A6
S11300100C9434000C9434000C9434000C9434008C
S11300200C9434000C9434000C9434000C9434007C
S11300300C9434000C9434000C9434000C9434006C
S11300400C9434000C9434000C9434000C9434005C
S11300500C94340011241FBECFE5D8E0DEBFCDBF21
S11300600E9436000C944B000C9400000E943C004B
S113007082E40E944700FFCF86E880BD87E689B905
S11300808AB188608AB98AB180618AB908958CB9C5
S10D00905D9BFECF0895F894FFCFA6
S9030000FC
