:100000000C942A000C9434000C9434000C943400AA
:100010000C9434000C9434000C9434000C94340090
:100020000C9434000C9434000C9434000C94340080
:100030000C9434000C9434000C9434000C94340070
:100040000C9434000C9434000C9434000C94340060
:100050000C94340011241FBECFE5D8E0DEBFCDBF25
:100060000E9416010C9436010C9400004130A1F559
:10007000813089F028F08230C9F0833011F1089581
:100080002AB381E090E002C0880F991F6A95E2F7D9
:10009000822B8ABB089527B381E090E002C0880FCD
:1000A000991F6A95E2F7822B87BB089524B381E0FC
:1000B00090E002C0880F991F6A95E2F7822B84BBFB
:1000C000089521B381E090E002C0880F991F6A95DE
:1000D000E2F7822B81BB0895411137C0813091F046
:1000E00028F08230D9F0833029F108952AB381E0D5
:1000F00090E002C0880F991F6A95E2F780958223ED
:100100008ABB089527B381E090E002C0880F991F51
:100110006A95E2F78095822387BB089524B381E036
:1001200090E002C0880F991F6A95E2F780958223BC
:1001300084BB089521B381E090E002C0880F991F2D
:100140006A95E2F78095822381BB08954130A1F53D
:10015000813089F028F08230C9F0833011F10895A0
:100160002BB381E090E002C0880F991F6A95E2F7F7
:10017000822B8BBB089528B381E090E002C0880FEA
:10018000991F6A95E2F7822B88BB089525B381E019
:1001900090E002C0880F991F6A95E2F7822B85BB19
:1001A000089522B381E090E002C0880F991F6A95FC
:1001B000E2F7822B82BB0895411137C0813091F064
:1001C00028F08230D9F0833029F108952BB381E0F3
:1001D00090E002C0880F991F6A95E2F7809582230C
:1001E0008BBB089528B381E090E002C0880F991F6F
:1001F0006A95E2F78095822388BB089525B381E054
:1002000090E002C0880F991F6A95E2F780958223DB
:1002100085BB089522B381E090E002C0880F991F4A
:100220006A95E2F78095822382BB089541E062E0FF
:1002300082E00E9436000E9427010E943201813430
:10024000E1F741E062E082E00E94A600F6CF86E896
:1002500080BD87E689B98AB188608AB98AB1806130
:100260008AB908955F9BFECF8CB10895F894FFCFB3
:00000001FF
